:100000000C943A000C9457000C9457000C94570031
:100010000C9457000C9457000C9457000C94570004
:100020000C9457000C9457000C9457000C945700F4
:100030000C9457000C9457000C9457000C945700E4
:100040000C9457000C9457000C9457000C945700D4
:100050000C9457000C9457000C9457000C945700C4
:100060000C9457000C9457006364696E6F7073753D
:1000700078585B0011241FBECFEFD8E0DEBFCDBFA4
:1000800011E0A0E0B1E0EEE3FFE002C005900D92C8
:10009000A633B107D9F721E0A6E3B1E001C01D9274
:1000A000AC33B207E1F70E9481000C949D070C94D9
:1000B0000000CF93DF93EC018A30910521F48DE0AD
:1000C00090E00E9459008091C00085FFFCCFC09352
:1000D000C60080E090E0DF91CF9108958091C0004C
:1000E00087FFFCCF8091C60090E008959093C500F3
:1000F0008093C40088E18093C1008EE08093C200A9
:100100000895CF93DF931F92CDB7DEB780E190E0E3
:100110000E9476008EE091E0909337018093360143
:1001200080E091E09093390180933801412C512C6B
:100130003201CE0101967C0180E2C82E81E0D82EEA
:1001400001E311E0A12C98E0B92EFF92EF92DF922B
:10015000CF92809137018F93809136018F930E94C7
:100160007F019FEF23EC89E0915020408040E1F730
:1001700000C0000089810F900F900F900F900F909A
:100180000F90863529F483E291E00E94AC01DDCF27
:10019000813441F57F926F925F924F921F930F933C
:1001A0000E94910180E290E00E94A5010E946F01EF
:1001B000B5010E94F900AA2797FDA095BA2FBF9319
:1001C000AF939F938F931F930F930E9491019FEF83
:1001D000491A590A690A790A0FB6F894DEBF0FBEA8
:1001E000CDBFB3CF823509F0B0CF412C512C3201B5
:1001F000ACCF97FB072E16F4009407D077FD09D0FB
:100200000E940D0107FC05D03EF4909581959F4F0B
:100210000895709561957F4F0895AA1BBB1B51E10E
:1002200007C0AA1FBB1FA617B70710F0A61BB70B66
:10023000881F991F5A95A9F780959095BC01CD010B
:1002400008958F929F92AF92BF92CF92DF92EF92DA
:10025000FF92CF93DF93EC01688179818A819B8142
:10026000611571058105910521F464E279ED8BE555
:1002700097E02DE133EF41E050E00E940307490190
:100280005A019B01AC01A7EAB1E40E9422076B016D
:100290007C01ACEEB4EFA50194010E943007C60EBC
:1002A000D71EE81EF91EF7FE06C081E0C81AD10865
:1002B000E10880E8F80AC882D982EA82FB82C60196
:1002C0009F77DF91CF91FF90EF90DF90CF90BF901D
:1002D000AF909F908F9008950E94210108958CE126
:1002E00091E00E9421010895A0E0B0E080931C01FC
:1002F00090931D01A0931E01B0931F010895A0E0EB
:10030000B0E0E5E8F1E00C944507AE01475F5F4FD0
:100310006F8178858D819E810E942905E2E00C9491
:100320006107A0E0B0E0E7E9F1E00C944507FE01C9
:10033000359661917191AF018091380190913901A9
:100340000E94D901E2E00C9461076091380170913C
:1003500039010E94590008950F931F93CF93DF93A3
:10036000E0913801F0913901238121FF1BC0EC019C
:1003700000E010E089916091380170913901DB0152
:100380001896ED91FC911997882331F00995892BE6
:1003900089F30FEF1FEFEECF8AE00995892B11F457
:1003A000C80102C08FEF9FEFDF91CF911F910F9196
:1003B0000895ACE0B0E0EFEDF1E00C9435077C017E
:1003C0006B018A01FC0117821682838181FFBDC106
:1003D000CE0101964C01F7019381F60193FD8591C1
:1003E00093FF81916F01882309F4ABC1853239F401
:1003F00093FD859193FF81916F01853229F4B701B7
:1004000090E00E945900E7CF512C312C20E020329F
:10041000A0F48B3269F030F4803259F0833269F401
:1004200020612CC08D3239F0803339F4216026C030
:100430002260246023C0286021C027FD27C030ED42
:10044000380F3A3078F426FF06C0FAE05F9E300D90
:100450001124532E13C08AE0389E300D1124332E00
:1004600020620CC08E3221F426FD6BC1206406C0D0
:100470008C3611F4206802C0883641F4F60193FDF1
:10048000859193FF81916F018111C1CF982F9F7D3D
:100490009554933028F40C5F1F4FFFE3F9830DC090
:1004A000833631F0833771F0833509F05BC022C0A9
:1004B000F801808189830E5F1F4F44244394512C9F
:1004C000540115C03801F2E06F0E711CF801A080D4
:1004D000B18026FF03C0652D70E002C06FEF7FEF93
:1004E000C5012C870E947E062C0183012C852F7765
:1004F000222E17C03801F2E06F0E711CF801A080A7
:10050000B18026FF03C0652D70E002C06FEF7FEF62
:10051000C5012C870E9473062C012C852068222E91
:10052000830123FC1BC0832D90E048165906B0F4CC
:10053000B70180E290E00E9459003A94F4CFF501AF
:1005400027FC859127FE81915F01B70190E00E9411
:10055000590031103A94F1E04F1A510841145104F6
:1005600071F7E5C0843611F0893639F5F80127FFB7
:1005700007C060817181828193810C5F1F4F08C029
:1005800060817181882777FD8095982F0E5F1F4FBE
:100590002F76B22E97FF09C0909580957095619542
:1005A0007F4F8F4F9F4F2068B22E2AE030E0A4018A
:1005B0000E94A206A82EA81844C0853729F42F7ED1
:1005C000B22E2AE030E025C0F22FF97FBF2E8F3601
:1005D000C1F018F4883579F0B4C0803719F0883745
:1005E00021F0AFC02F2F2061B22EB4FE0DC08B2D95
:1005F0008460B82E09C024FF0AC09F2F9660B92ED0
:1006000006C028E030E005C020E130E002C020E173
:1006100032E0F801B7FE07C0608171818281938169
:100620000C5F1F4F06C06081718180E090E00E5F1B
:100630001F4FA4010E94A206A82EA818FB2DFF7729
:10064000BF2EB6FE0BC02B2D2E7FA51450F4B4FE8A
:100650000AC0B2FC08C02B2D2E7E05C07A2C2B2D93
:1006600003C07A2C01C0752C24FF0DC0FE01EA0DD9
:10067000F11D8081803311F4297E09C022FF06C05C
:100680007394739404C0822F867809F0739423FDC9
:1006900013C020FF06C05A2C731418F4530C5718BB
:1006A000732C731468F4B70180E290E02C870E94E9
:1006B000590073942C85F5CF731410F4371801C0CA
:1006C000312C24FF12C0B70180E390E02C870E94F8
:1006D00059002C8522FF17C021FF03C088E590E058
:1006E00002C088E790E0B7010CC0822F867859F0ED
:1006F00021FD02C080E201C08BE227FD8DE2B7013F
:1007000090E00E945900A51438F4B70180E390E00E
:100710000E9459005A94F7CFAA94F401EA0DF11DF2
:100720008081B70190E00E945900A110F5CF3320DD
:1007300009F451CEB70180E290E00E9459003A944A
:10074000F6CFF7018681978102C08FEF9FEF2C963D
:10075000E2E10C94510720FD09C0FC0123FD05C016
:1007600022FF02C07383628351834083089544FD56
:1007700010C046FD10C0DB01FC01AA0FBB1FEE1F1D
:10078000FF1F1094D1F76A0F7B1F8E1F9F1F31E050
:1007900003C033E001C034E0660F771F881F991F44
:1007A0003150D1F7620F711D811D911D08950F9376
:1007B0001F93CF93DF938C01C8010E946E00EC0160
:1007C00097FD08C00E946006892BB1F7B801CE01E1
:1007D0000E948906CE01DF91CF911F910F9108955C
:1007E0008F929F92AF92CF92DF92EF92FF920F93F0
:1007F0001F93CF93DF93EC01A62E4A01022F0E9494
:100800006E00AC0155274B32510521F04D32510598
:1008100051F40068AA9411F480E067C0CE010E94F0
:100820006E0097FDF9CF102F1D7F302F307301F52B
:100830008033F1F4FF24FA94FA0C09F442C0CE019B
:100840000E946E0097FD3DC0382F3F7D383551F432
:100850001264AA94AA94A9F1CE010E946E0097FF97
:1008600007C02FC006FF02C0126001C01261AF2C8A
:10087000C12CD12C760120ED280F283080F014FFF8
:1008800004C0BE010E94890619C02A3040F016FF3C
:10089000F8CF2F7D3FEE320F363098F72750412F9B
:1008A000C701B6010E94B7036B017C011260AA94D4
:1008B00059F0CE010E946E0097FFDDCF11FD04C0FC
:1008C000ABCFC12CD12C760117FF08C0F094E09477
:1008D000D094C094C11CD11CE11CF11C212FB70184
:1008E000A601C4010E94AB0381E0DF91CF911F916B
:1008F0000F91FF90EF90DF90CF90AF909F908F90EF
:100900000895A1E2B0E0E7E8F4E00C943A075C0156
:100910007A018E010F5F1F4F680180E2D8011D929E
:100920008A95E9F7F501738040E050E0812CB0E052
:10093000912C81E090E0F90173FCA59173FEA191E7
:100940008F017A2F9F01A11103C080E090E07DC04C
:10095000AE3519F44115510559F1E92DF0E0E417D0
:10096000F5073CF4AD3569F1AD3219F4BB2319F14B
:1009700003C0B11101C08A2EE72FE695E695E695F2
:1009800086010E0F111DF801A72FA7708C0102C060
:10099000000F111FAA95E2F7D801B081BA2BB083DE
:1009A000781559F0781510F47F5FE6CF7150E4CFD9
:1009B0009924939403C0B1E001C0B0E04F5F5F4F52
:1009C000BACFBB2319F08E8180628E83911003C051
:1009D0009924939415C0F601CE018196208120952B
:1009E0002193E817F907D1F7F3CFE114F10429F0C7
:1009F000D7018C93F70131967F01615001F1912C61
:100A0000C50169A30E946E0069A197FD16C0282F39
:100A1000269526952695F601E20FF11D208130E0FE
:100A2000AC014770552702C0359527954A95E2F7E6
:100A300020FDDBCFB5010E948906911086CFE1141D
:100A4000F10411F0D7011C92C801A196EDE00C94BD
:100A500056074F925F927F928F929F92AF92BF9272
:100A6000CF92DF92EF92FF920F931F93CF93DF937A
:100A70001F92CDB7DEB78C012B017A01FC011782E2
:100A80001682A12CF801D380F201D3FC8591D3FE0C
:100A90008191382F2F01882309F4FCC090E039831D
:100AA0000E9460063981892B21F0C8010E94D7037A
:100AB000E9CF353241F4F201D3FC3591D3FE3191C7
:100AC0002F01353269F4C80139830E946E003981E3
:100AD00097FDDEC03817B1F2B8010E948906DAC06E
:100AE0003A3241F4D3FC3591D3FE31912F01BB242E
:100AF000B39401C0B12C712C20ED230F2A3090F457
:100B0000FB2DF260BF2E672D70E080E090E040E2A8
:100B10000E94B703762EF201D3FC3591D3FE3191BA
:100B20002F01EACFB1FE03C0711003C0B3C0772418
:100B30007A94383619F03C3661F014C0F201D3FCD7
:100B40003591D3FE31912F01383661F4FB2DF860D9
:100B5000BF2E8B2D8460B82EF201D3FC3591D3FECD
:100B600031912F01332309F495C0632F70E088E69B
:100B700090E039830E9468063981892B09F48AC084
:100B8000B0FC07C0F701C080D180C70102967C018C
:100B900002C0C12CD12C3E3651F4F8014681578158
:100BA00060E070E02B2DC6010E94AB036BCF3336A3
:100BB000A1F4B1FC02C077247394C8010E946E00B6
:100BC00097FD66C0C114D10429F0F6018083C601E7
:100BD00001966C017A9489F757C03B3559F492011C
:100BE000A601672DC8010E9481042C01009709F01D
:100BF0004BC045C0C80139830E94D703398197FD96
:100C000047C03F3669F128F4343631F1393679F18D
:100C10002BC0333769F03537F9F026C0C114D10441
:100C200029F0F6018082C60101966C017A9471F078
:100C3000C8010E946E004C0197FD08C00E9460062A
:100C4000892B61F3B801C4010E948906C114D10443
:100C5000D9F0F601108218C0FB2DF062BF2E07C03C
:100C60008B2D8061B82E03C09B2D9064B92E2B2D47
:100C7000A601672DC8010E94F003811105C0F8018B
:100C80008381807329F406C0B0FCFCCEA394FACE15
:100C9000AA2019F08A2D90E002C08FEF9FEF0F90ED
:100CA000DF91CF911F910F91FF90EF90DF90CF9048
:100CB000BF90AF909F908F907F905F904F900895DE
:100CC00091119EC0803219F089508550D0F7089557
:100CD000FC010590061621F00020D9F7C001089507
:100CE0003197CF010895FC010590615070400110CB
:100CF000D8F7809590958E0F9F1F0895FC01615045
:100D0000704001900110D8F7809590958E0F9F1F2D
:100D10000895FB01238120FF12C026FD10C08F3FE4
:100D20003FEF930761F082832F7D20642383268128
:100D300037812150310937832683992708958FEF12
:100D40009FEF0895FA01AA27283051F1203181F14F
:100D5000E8946F936E7F6E5F7F4F8F4F9F4FAF4FC3
:100D6000B1E03ED0B4E03CD0670F781F891F9A1FD6
:100D7000A11D680F791F8A1F911DA11D6A0F711D8A
:100D8000811D911DA11D20D009F468943F912AE096
:100D9000269F11243019305D3193DEF6CF0108957E
:100DA000462F4770405D4193B3E00FD0C9F7F6CFAF
:100DB000462F4F70405D4A3318F0495D31FD405277
:100DC000419302D0A9F7EACFB4E0A695979587950D
:100DD00077956795BA95C9F70097610571050895EC
:100DE0009B01AC010A2E0694579547953795279598
:100DF000BA95C9F7620F731F841F951FA01D089530
:100E0000992788270895052E97FB1EF400940E94C9
:100E10001A0757FD07D00E946C0707FC03D04EF459
:100E20000C941A0750954095309521953F4F4F4FA0
:100E30005F4F089590958095709561957F4F8F4F86
:100E40009F4F08950E948E07A59F900DB49F900D0F
:100E5000A49F800D911D11240895B7FF0C942207C3
:100E60000E942207821B930B08952F923F924F926C
:100E70005F926F927F928F929F92AF92BF92CF922A
:100E8000DF92EF92FF920F931F93CF93DF93CDB733
:100E9000DEB7CA1BDB0B0FB6F894DEBF0FBECDBFAB
:100EA00009942A88398848885F846E847D848C847C
:100EB0009B84AA84B984C884DF80EE80FD800C8185
:100EC0001B81AA81B981CE0FD11D0FB6F894DEBF68
:100ED0000FBECDBFED010895A1E21A2EAA1BBB1BC8
:100EE000FD010DC0AA1FBB1FEE1FFF1FA217B307F6
:100EF000E407F50720F0A21BB30BE40BF50B661F0C
:100F0000771F881F991F1A9469F7609570958095CF
:100F100090959B01AC01BD01CF010895A29FB00146
:100F2000B39FC001A39F700D811D1124911DB29F1D
:0E0F3000700D811D1124911D0895F894FFCFBE
:100F3E000000000200000000590000000000000048
:100F4E0000010000000000006E0000000100000023
:100F5E0025630056657273696F6E20302E302E3108
:060F6E0000256C75000077
:00000001FF
